:020000040000FA
:100000000C9435000C945D000C945D000C945D0024
:100010000C945D000C945D000C945D000C945D00EC
:100020000C945D000C945D000C945D000C945D00DC
:100030000C945D000C945D000C945D000C945D00CC
:100040000C948E030C945D000C945D000C945D0088
:100050000C945D000C945D000C945D000C945D00AC
:100060000C945D000C945D00D90411241FBECFEFE9
:10007000D8E0DEBFCDBF11E0A0E0B1E0E8EDFAE0EE
:1000800002C005900D92A031B107D9F721E0A0E19F
:10009000B1E001C01D92A634B207E1F710E0C5E35C
:1000A000D0E004C02197FE010E943F05C433D10770
:1000B000C9F70E94E3030C946A050C940000809336
:1000C000BB0084E88093BC008091BC0087FFFCCF1C
:1000D0009091B900987F81E0983231F0983129F001
:1000E000903419F080E008950895089584EA80938B
:1000F000BC008091BC0087FFFCCF8091B900887F55
:1001000019F080EC0C945F0080E008955F926F928C
:100110007F928F929F92AF92BF92CF92DF92EF9297
:10012000FF920F931F93CF93DF93CDB7DEB7582E77
:10013000742E652EB62E922E0E947600852D0E947A
:100140005F008D2D0E945F008C2D0E945F008B2D23
:1001500083708A2990E081109CE0892B0E945F00C7
:10016000862D0E945F00872D0E945F008CE0F69430
:10017000E794D794C7948A95D1F78C2D807FC82EA9
:10018000892D8F708C290E945F00812F0E945F0053
:10019000802F0E945F0084E98093BC008091BC00A6
:1001A00084FDFCCFDF91CF911F910F91FF90EF90D5
:1001B000DF90CF90BF90AF909F908F907F906F9087
:1001C0005F900895CF93DF93D82FC62F0E947600BB
:1001D0008D2F0E945F008C2F0E945F0084E9809326
:1001E000BC008091BC0084FDFCCFDF91CF910895CD
:1001F0004F925F926F927F928F929F92AF92BF9237
:10020000CF92DF92EF92FF920F931F93CF93DF93E2
:1002100000D000D00F92CDB7DEB7C0903101D090A2
:100220003201E0903301F0903401C114D104E104B3
:10023000F104F1F460E880E10E94E20010922601EE
:10024000109225010F900F900F900F900F90DF915B
:10025000CF911F910F91FF90EF90DF90CF90BF90C3
:10026000AF909F908F907F906F905F904F90089588
:100270004090250150902601712C612C40912B015A
:100280004D83A7019601C301B2010E9402059B01A3
:10029000AC018D81E82FF0E0E85FFE4FA081B0E077
:1002A0000E9434058B019C0100581447224D3A41AD
:1002B0000130134A214E314108F443C060910101DD
:1002C000709102018091030190910401A7019601B0
:1002D0000E94120529013A01B4E04B165104610451
:1002E000710408F4A7CF46E0441651046104710478
:1002F00008F4B8C01D828DE2481681E058066104FA
:10030000710440F09D819F5F9D837694679457941C
:100310004794F1CFAD81A11103C0E89440F81D824C
:10032000A7019601C301B2010E9402059B01AC0125
:10033000BD81EB2FF0E0E85FFE4FA081B0E00E94AE
:100340003405C0903D01D0903E01E0903F01F09017
:100350004001A70196010E94120549015A0135E0AA
:10036000F694E794D794C7943A95D1F745E09695DB
:100370008795779567954A95D1F757E0660F771F70
:10038000881F991F5A95D1F7A70196010E9412055F
:1003900029833A834B835C838B019C01B501A401C3
:1003A000552766277727E7E0440F551F661F771FFD
:1003B000EA95D1F752506109710989819A81AB811F
:1003C000BC81480F591F6A1F7B1F812CA12C8AE119
:1003D0000E9486008091250190912601B0E0A0E066
:1003E00084159505A605B70531F480912B019D81F3
:1003F000891709F427CF88248394A4E04A1651046E
:100400006104710409F0812CAD80A29480EFA822D0
:10041000B301A2014450510961097E4F97E0440F96
:10042000551F661F771F9A95D1F7C12CD12C7601E5
:10043000C39400E010E098018AE20E948600609177
:100440002E016C6480E10E94E200509226014092ED
:100450002501BD81B0932B0180914501806280937D
:100460004501F0CEF4E04F2E512C612C712C55CF6C
:10047000409131015091320160913301709134010A
:10048000811122C08091190190911A01A0911B0144
:10049000B0911C011092450184179507A607B70774
:1004A00051F08093310190933201A0933301B093C6
:1004B00034010E94F80060914501662319F081EB38
:1004C0000E94E2000C94F8008091150190911601B1
:1004D000A0911701B0911801DDCFCF92DF92EF927A
:1004E000FF921F93CF93DF93C82FD0E02396C12CA8
:1004F000D12C76011FE0180FCE010E945405E82F81
:100500008823B9F080ED8E0F8A30E8F4AAE0B0E0DD
:10051000A70196010E943405E053FF0B6F01FF0F06
:10052000EE08FF08C60ED71EE81EF91E21961C1302
:10053000E3CFC701B601DF91CF911F91FF90EF90FC
:10054000DF90CF900895C12CD12C7601F2CF0F937C
:100550001F93CF93DF93062F142FC82FD0E0CE0127
:100560000E945405602F000F770B8617170611F0B5
:1005700090E011C0CE0101960E945405412F110F49
:10058000550B84171506A1F7CE0102960E9454055B
:1005900091E08D3369F7892FDF91CF911F910F91F2
:1005A0000895FF920F931F93CF93DF93EC01F62EE4
:1005B00008811981C8010E945405F81621F06F2D99
:1005C000C8010E945C05CE01DF91CF911F910F9170
:1005D000FF9008954F925F926F927F928F929F92B9
:1005E000AF92BF92CF92DF92EF92FF920F931F9341
:1005F000CF93DF93CDB7DEB72C970FB6F894DEBF5D
:100600000FBECDBFF82E162F49015A01C82ED12C8E
:10061000DA82C982CE0101960E94D102C6010196FA
:100620009A83898360E5153509F06EE4CE01019661
:100630000E94D102C60102969A8389836DE3CE019E
:1006400001960E94D10200E08AE0482E512C612CD4
:10065000712CEE24E394E00E81E090E08C0F9D1F5E
:10066000800F911D8C01C501B401A30192010E946C
:100670001205605DF80160830E2DFAE08F1691047B
:10068000A104B104B0F413E01F0D812F90E01F5FAF
:10069000002391F00150E1E0F0E0EC0FFD1FE00FCE
:1006A000F11D60819C878B87CE010B960E94D10241
:1006B000ECCF49015A01CDCF14E01F0D1E0D9C87D0
:1006C0008B8760E0CE010B960E94D1028FE0C80EAE
:1006D000D11C812F90E0C816D9064CF01F5F9C8773
:1006E0008B8760E0CE010B960E94D102F2CF2C9650
:1006F0000FB6F894DEBF0FBECDBFDF91CF911F9133
:100700000F91FF90EF90DF90CF90BF90AF909F90B0
:100710008F907F906F905F904F9008951F921FB6BB
:100720001F9211248F939F93AF93BF9380911D01CC
:1007300090911E01A0911F01B09120014096A11D32
:10074000B11D80931D0190931E01A0931F01B093D2
:1007500020018091140190E3980F9D37E8F4909365
:1007600014018091100190911101A0911201B0919A
:1007700013010196A11DB11D8093100190931101E9
:10078000A0931201B0931301BF91AF919F918F91EC
:100790001F901FBE1F9018958D5480931401809157
:1007A0001D0190911E01A0911F01B09120010196A1
:1007B000A11DB11D80931D0190931E01A0931F01E7
:1007C000B0932001CECFF89482E880937A0083E042
:1007D00084BD85BD80916E00816080936E0081E054
:1007E000809380009BE0909381008093B00084E030
:1007F0008093B1001092C10078943898409A40E5F7
:1008000065E580E00E94A702882339F04EE464E4A5
:1008100080E10E94A702811110C020E834E84EE177
:1008200050E065E580E00E94EA0220E432E44FE017
:1008300050E064E480E10E94EA0280E00E946D02E0
:100840006B017C01C0921901D0921A01E0921B0148
:10085000F0921C0180E10E946D026093150170937B
:1008600016018093170190931801CD28CE28CF2828
:1008700021F0672B682B692B41F520E834E84EE125
:1008800050E065E580E00E94EA0220E432E44FE0B7
:1008900050E064E480E10E94EA0280E894E8AEE17E
:1008A000B0E08093190190931A01A0931B01B093BB
:1008B0001C0180E492E4AFE0B0E0809315019093D6
:1008C0001601A0931701B093180110922E011092F7
:1008D0002F011092300160E880E10E94E20060E8A0
:1008E00081E10E94E20060E882E10E94E20080E093
:1008F00096E4A3ECB3E28093010190930201A093EC
:100900000301B093040162ED87EB0E94E20080E6F0
:100910009BE1ACE9B1E080933D0190933E01A0934F
:100920003F01B093400186B18170809300010E9425
:100930003802C0E0D0E086B1817090910001891743
:1009400099F19FB7F89440911D0150911E0160915B
:100950001F01709120019FBFC0902101D090220102
:10096000E0902301F09024014C195D096E097F0984
:100970004333510561057105B8F0809300019FB7BD
:10098000F89440911D0150911E0160911F017091DA
:1009900020019FBF409321015093220160932301C6
:1009A000709324010E943802209729F20E940000CF
:1009B000C2CFE5E2F1E01182108213821282158229
:1009C000148216821782108680910501909106018B
:1009D000A091070181879287A387148615861686C2
:1009E0001786108A118A128A138A148A158A168A1F
:1009F000178A80E89FEDA7E1B0E1808F918FA28FE9
:100A0000B38F0895DB018F939F930E943405BF91AC
:100A1000AF91A29F800D911DA39F900DB29F900D4D
:100A200011240895A1E21A2EAA1BBB1BFD010DC0C3
:100A3000AA1FBB1FEE1FFF1FA217B307E407F5078E
:100A400020F0A21BB30BE40BF50B661F771F881F6A
:100A5000991F1A9469F760957095809590959B0100
:100A6000AC01BD01CF0108950E944505A59F900DE1
:100A7000B49F900DA49F800D911D11240895EE0F39
:100A8000FF1F0590F491E02D0994A29FB001B39F40
:100A9000C001A39F700D811D1124911DB29F700D87
:100AA000811D1124911D0895F999FECF92BD81BD3C
:100AB000F89A992780B50895262FF999FECF1FBA85
:100AC00092BD81BD20BD0FB6F894FA9AF99A0FBE77
:100AD00001960895F894FFCF020046C32303030351
:080AE00001020408102040800F
:00000001FF
