:100000000C9435000C945D000C945D000C945D0024
:100010000C945D000C945D000C945D000C945D00EC
:100020000C945D000C945D000C945D000C945D00DC
:100030000C945D000C945D000C945D000C945D00CC
:100040000C9439040C945D000C945D000C945D00DC
:100050000C945D000C945D000C945D000C945D00AC
:100060000C945D000C945D00A10511241FBECFEF20
:10007000D8E0DEBFCDBF11E0A0E0B1E0EEE8FDE0EA
:1000800002C005900D92A231B107D9F721E0A2E19B
:10009000B1E001C01D92A834B207E1F710E0C5E35A
:1000A000D0E004C02197FE010E94A006C433D1070E
:1000B000C9F70E948E040C94C5060C94000080932E
:1000C000BB0084E88093BC008091BC0087FFFCCF1C
:1000D0009091B900987F81E0983231F0983129F001
:1000E000903419F080E008950895089584EA80938B
:1000F000BC008091BC0087FFFCCF8091B900887F55
:1001000019F080EC0C945F0080E008955F926F928C
:100110007F928F929F92AF92BF92CF92DF92EF9297
:10012000FF920F931F93CF93DF93CDB7DEB7582E77
:10013000742E652EB62E922E0E947600852D0E947A
:100140005F008D2D0E945F008C2D0E945F008B2D23
:1001500083708A2990E081109CE0892B0E945F00C7
:10016000862D0E945F00872D0E945F008CE0F69430
:10017000E794D794C7948A95D1F78C2D807FC82EA9
:10018000892D8F708C290E945F00812F0E945F0053
:10019000802F0E945F0084E98093BC008091BC00A6
:1001A00084FDFCCFDF91CF911F910F91FF90EF90D5
:1001B000DF90CF90BF90AF909F908F907F906F9087
:1001C0005F900895CF93DF93D82FC62F0E947600BB
:1001D0008D2F0E945F008C2F0E945F0084E9809326
:1001E000BC008091BC0084FDFCCFDF91CF910895CD
:1001F0004F925F926F927F928F929F92AF92BF9237
:10020000CF92DF92EF92FF920F931F93CF93DF93E2
:1002100000D000D00F92CDB7DEB7C0903301D090A0
:100220003401E0903501F0903601C114D104E104AD
:10023000F104F1F460E880E10E94E20010922801EC
:10024000109227010F900F900F900F900F90DF9159
:10025000CF911F910F91FF90EF90DF90CF90BF90C3
:10026000AF909F908F907F906F905F904F90089588
:100270004090270150902801712C612C40912D0154
:100280004D83A7019601C301B2010E94CA059B01DB
:10029000AC018D81E82FF0E0E75FFE4FA081B0E078
:1002A0000E940B068B019C0100581447224D3A41D5
:1002B0000130134A214E314108F443C060910201DC
:1002C000709103018091040190910501A7019601AD
:1002D0000E94DA0529013A01B4E04B165104610489
:1002E000710408F4A7CF46E0441651046104710478
:1002F00008F4B8C01D828DE2481681E058066104FA
:10030000710440F09D819F5F9D837694679457941C
:100310004794F1CFAD81A11103C0E89440F81D824C
:10032000A7019601C301B2010E94CA059B01AC015D
:10033000BD81EB2FF0E0E75FFE4FA081B0E00E94AF
:100340000B06C0903F01D0904001E0904101F09039
:100350004201A70196010E94DA0549015A0135E0E0
:10036000F694E794D794C7943A95D1F745E09695DB
:100370008795779567954A95D1F757E0660F771F70
:10038000881F991F5A95D1F7A70196010E94DA0597
:1003900029833A834B835C838B019C01B501A401C3
:1003A000552766277727E7E0440F551F661F771FFD
:1003B000EA95D1F752506109710989819A81AB811F
:1003C000BC81480F591F6A1F7B1F812CA12C8AE119
:1003D0000E9486008091270190912801B0E0A0E062
:1003E00084159505A605B70531F480912D019D81F1
:1003F000891709F427CF88248394A4E04A1651046E
:100400006104710409F0812CAD80A29480EFA822D0
:10041000B301A2014450510961097E4F97E0440F96
:10042000551F661F771F9A95D1F7C12CD12C7601E5
:10043000C39400E010E098018AE20E948600609177
:1004400030016C6480E10E94E200509228014092E9
:100450002701BD81B0932D01809147018062809377
:100460004701F0CEF4E04F2E512C612C712C55CF6A
:100470004F925F926F927F928F929F92AF92BF92B4
:10048000CF92DF92EF92FF920F931F93CF93DF9360
:10049000CDB7DEB728970FB6F894DEBF0FBECDBF3D
:1004A00080901A0190901B01409016015090170106
:1004B000609018017090190102E080169104F0F12B
:1004C00020911201309113014091140150911501B6
:1004D000211531054105510589F169017A01F6942B
:1004E000E794D794C7944C145D046E047F0408F419
:1004F0005DC04C185D086E087F08BC0190E080E08C
:100500000E9416065401D12CC12CE12CF12C87013C
:100510008982BA82CB82DC82ED82FE820F831887C9
:10052000C12CD12CE12CF12C00E010E00E944306FC
:1005300049015A01480C591C6A1C7B1C1092470146
:100540008091330190913401A0913501B091360131
:10055000481659066A067B0651F0409233015092C4
:10056000340160923501709236010E94F80060916A
:100570004701662319F081EB0E94E20028960FB62E
:10058000F894DEBF0FBECDBFDF91CF911F910F91C9
:10059000FF90EF90DF90CF90BF90AF909F908F90A3
:1005A0007F906F905F904F900C94F800412C512CED
:1005B0003201A3CF24E080E090E0DC0160E46093AE
:1005C0007C0030917A00306430937A0030917A0068
:1005D00036FDFCCF4091780050917900840F951F33
:1005E000A11DB11D215059F722E0B695A795979509
:1005F00087952A95D1F70895CF92DF92EF92FF92D7
:100600001F93CF93DF93C82FD0E02396C12CD12C1A
:1006100076011FE0180FCE010E94AF06E82F882355
:10062000B9F080ED8E0F8A30E8F4AAE0B0E0A701BF
:1006300096010E940B06E053FF0B6F01FF0FEE08BF
:10064000FF08C60ED71EE81EF91E21961C13E3CF25
:10065000C701B601DF91CF911F91FF90EF90DF901E
:10066000CF900895C12CD12C7601F2CF0F931F9318
:10067000CF93DF93062F142FC82FD0E0CE010E9416
:10068000AF06602F000F770B8617170611F090E06A
:1006900011C0CE0101960E94AF06412F110F550BDC
:1006A00084171506A1F7CE0102960E94AF0691E0CD
:1006B0008D3369F7892FDF91CF911F910F910895A5
:1006C000FF920F931F93CF93DF93EC01F62E0881D7
:1006D0001981C8010E94AF06F81621F06F2DC801DC
:1006E0000E94B706CE01DF91CF911F910F91FF902D
:1006F00008954F925F926F927F928F929F92AF92E6
:10070000BF92CF92DF92EF92FF920F931F93CF93FE
:10071000DF93CDB7DEB72C970FB6F894DEBF0FBED0
:10072000CDBFF82EE42E48015901C82ED12CDA8213
:10073000C982CE0101960E946003C60101969A8388
:1007400089836E2DCE0101960E946003C601029638
:100750009A8389836DE3CE0101960E94600300E0D5
:100760008AE0482E512C612C712CEE24E394E00E8B
:1007700081E090E08C0F9D1F800F911D8C01C501C1
:10078000B401A30192010E94DA05605DF801608363
:100790000E2DFAE08F169104A104B104B0F413E019
:1007A0001F0D812F90E01F5F002391F00150E1E0C9
:1007B000F0E0EC0FFD1FE00FF11D60819C878B873F
:1007C000CE010B960E946003ECCF49015A01CDCFB8
:1007D00024E0F20EFE0C9C878B8760E0CE010B9626
:1007E0000E9460038FE0C80ED11C8F2D90E0C816C8
:1007F000D9064CF0F3949C878B8760E0CE010B9672
:100800000E946003F2CF2C960FB6F894DEBF0FBEA5
:10081000CDBFDF91CF911F910F91FF90EF90DF90AF
:10082000CF90BF90AF909F908F907F906F905F9090
:100830004F9008950F931F9300E81FE925ED30E0D6
:1008400042E566E480E00E94790300E814E82EE1C6
:1008500030E047E562E480E10E94790300E010E0C7
:10086000980144E563E580E20E9479031F910F91AE
:1008700008951F921FB61F9211248F939F93AF93D9
:10088000BF938091230190912401A0912501B09103
:1008900026014096A11DB11D809323019093240150
:1008A000A0932501B09326018091220190E3980F37
:1008B0009D37E8F49093220180911E0190911F01D1
:1008C000A0912001B09121010196A11DB11D80933D
:1008D0001E0190931F01A0932001B0932101BF91AD
:1008E000AF919F918F911F901FBE1F9018958D54AF
:1008F000809322018091230190912401A0912501F0
:10090000B09126010196A11DB11D80932301909302
:100910002401A0932501B0932601CECFF89482E85C
:1009200080937A0083E084BD85BD80916E008160F4
:1009300080936E0081E0809380009BE09093810023
:100940008093B00084E08093B1001092C10078944D
:100950003898469842E566E480E00E943603882392
:1009600071F047E562E480E10E943603882339F0A4
:1009700044E563E580E20E943603811102C00E94D3
:100980001A0480E00E94FC026B017C01C0921601F7
:10099000D0921701E0921801F092190180E10E94B3
:1009A000FC026093120170931301809314019093E1
:1009B000150180E20E94FC029B01215031092115A2
:1009C000344008F0B4C070931B0160931A01CD2825
:1009D000CE28CF2801F50E941A0480E89FE9A5EDF2
:1009E000B0E08093160190931701A0931801B09383
:1009F000190180E894E8AEE1B0E080931201909391
:100A00001301A0931401B093150180E094E090933A
:100A10001B0180931A011092300110923101109243
:100A2000320160E880E10E94E20060E881E10E941A
:100A3000E20060E882E10E94E20080E096E4A3EC3C
:100A4000B3E28093020190930301A0930401B09359
:100A5000050162ED87EB0E94E20080E69BE1ACE9D4
:100A6000B1E080933F0190934001A0934101B09386
:100A700042010E94DA0290931D0180931C01A09113
:100A80001A01B0911B01A230B10508F457C09C01B6
:100A90000E94FC052FEF33E040E050E00E94DA05B1
:100AA000C90190930101809300010E943802CC2477
:100AB000CA9483E0D82EE12CF12CC0E0D0E00E9453
:100AC000DA0240911C0150911D019C01241B350B41
:100AD00037FF03C09A01281B390B2230310514F16E
:100AE00090931D0180931C01A0911A01B0911B01EC
:100AF00030E020E0A230B10538F09C010E94FC05F6
:100B0000A70196010E94DA058091000190910101F0
:100B10008217930739F03093010120930001C90136
:100B20000E943802209759F20E940000C8CF80E04E
:100B300094E090931B0180931A0149CF90E080E0EC
:100B4000B0CFE7E2F1E011821082138212821582A7
:100B500014821682178210868091060190910701F7
:100B6000A091080181879287A3871486158616862F
:100B70001786108A118A128A138A148A158A168A8D
:100B8000178A80E89FEDA7E1B0E1808F918FA28F57
:100B9000B38F0895DB018F939F930E940B06BF9143
:100BA000AF91A29F800D911DA39F900DB29F900DBC
:100BB00011240895A1E21A2EAA1BBB1BFD010DC032
:100BC000AA1FBB1FEE1FFF1FA217B307E407F507FD
:100BD00020F0A21BB30BE40BF50B661F771F881FD9
:100BE000991F1A9469F760957095809590959B016F
:100BF000AC01BD01CF010895A29FB001B39FC00118
:100C0000A39F700D811D1124911DB29F700D811D38
:100C10001124911D08950E94FC05A59F900DB49F7D
:100C2000900DA49F800D911D11240895E894DF93E9
:100C3000CF93FC01DB010E94FC057F936F93E901D8
:100C40009A01AC01BF93AF933F932F93DF010E94B2
:100C5000FC0526F46C1B7D0B820B930B9E01EB01B4
:100C6000FC010E94A606AF91BF912F913F910E9477
:100C7000A606BE01CF01F9012F913F91CF91DF91DF
:100C80000895689401C0E8948F929F92CF93DF9368
:100C90000E944F06DF91CF919F908F9008958824F6
:100CA0009924F401E401B0E49F93AA279A158B04D8
:100CB0009C04ED05FE05CF05D007A10798F4AD2FE4
:100CC000DC2FCF2FFE2FE92D982C892E982F872FE0
:100CD000762F652F542F432F322F2227B85031F70C
:100CE000BF9127C01B2EBF91BB27220F331F441F6C
:100CF000551F661F771F881F991F881C991CEE1FA0
:100D0000FF1FCC1FDD1FAA1FBB1F8A149B04EC050D
:100D1000FD05CE05DF05A007B10748F08A189B083E
:100D2000EC09FD09CE09DF09A00BB10B21601A9473
:100D3000E1F62EF49401AF01BE01CD01000C08953F
:100D4000EE0FFF1F0590F491E02D09940E94FC0521
:100D5000460F571FC81FD91F08F431960895F999F7
:100D6000FECF92BD81BDF89A992780B50895262FB0
:100D7000F999FECF1FBA92BD81BD20BD0FB6F89480
:0E0D8000FA9AF99A0FBE01960895F894FFCFE3
:100D8E00FFFF0046C32303030301020408102040A3
:020D9E008000D3
:00000001FF
